:1000000048C030C361C060C05FC05EC05DC05CC03E
:100010005BC05AC059C058C057C056C055C0060032
:10002000FF0901A101150026FF00750895040900CC
:10003000B20201C00403090412036F0062006400ED
:10004000650076002E006100740014034C0045002A
:100050004400430074006C00480049004400120151
:10006000100100000008C016DF05000101020001B8
:100070000902220001010080FA09040000010300C6
:100080000000092101010001221600070581030873
:10009000006411241FBECFE5D2E0DEBFCDBF10E06B
:1000A000A0E6B0E0EEE4F9E002C005900D92A236C1
:1000B000B107D9F710E0A2E6B0E001C01D92A23A64
:1000C000B107E1F7A8D041C49BCFCF93DF93EC01F8
:1000D00050916700561708F4652F4091660044233D
:1000E000E9F4B19B04C081E08093620002C01092E9
:1000F0006200B39B04C081E08093630002C0109251
:100100006300B49B04C081E08093640002C010923D
:100110006400B59B0AC081E080936500A42FB0E025
:10012000AE59BF4F20E030E00AC010926500F6CF14
:10013000FE01E20FF31F8D9180832F5F3F4F261743
:10014000B8F3460F40936600561B50936700862F06
:10015000DF91CF910895CF93DF93EC015091670029
:10016000552309F441C0561708F4652F40916600E5
:10017000A42FB0E0AE59BF4F20E030E007C0FE0131
:10018000E20FF31F80818D932F5F3F4F2617B8F347
:10019000460F40936600561B652F5093670055230A
:1001A000E1F480916200882311F0C19A01C0C198E6
:1001B00080916300882311F0C39A01C0C398809195
:1001C0006400882311F0C49A01C0C498809165002E
:1001D000882311F0C59A01C0C59810926B00109247
:1001E0006A0080E0662309F481E0DF91CF910895F1
:1001F000FC0180818076803261F48181813011F050
:10020000893039F484E080936700109266008FEFA4
:10021000089580E00895CF93DF938AE387BB80E061
:1002200090E07DD38F3F09F081BF2EE088E190E020
:100230000FB6F894A89581BD0FBE21BD7DD0B89AA8
:1002400024E130E042E251EA04C0A895CA010197D6
:10025000F1F721503040C9F710926B0010926A00FC
:10026000B898789410926B0010926A00C2E2D1EABA
:10027000A89590D080916A0090916B000196909320
:100280006B0080936A00FE013197F1F7883C91057D
:1002900079F7C198C398C498C598EACFDF92EF92D6
:1002A000FF920F931F93CF93DF9300E080E8D82E47
:1002B000EE24FF241D2D100F11BFC1D1EC0189E0E8
:1002C000C433D8070CF0102FD6940894E11CF11C0D
:1002D00088E0E816F10411F0012FECCF115011BFA6
:1002E0001F5FE12EFF240894E11CF11C13C0A7D16D
:1002F0009C012453394037FF03C0309521953F4F6F
:100300002C173D0714F09E0101C011B781B78F5F14
:1003100081BFE90181B790E0E816F90644F711BF03
:1003200061B780E090E003D3DF91CF911F910F91EF
:10033000FF90EF90DF90089585B7836085BF8BB7FE
:1003400080648BBF8BE4809378008AE5809377008C
:1003500008951F93DC01162F8091770084FF07C05A
:100360008091780098E889278093780003C08AE517
:1003700080937700912FE9E7F0E08D918193915080
:10038000E1F789E790E0612F56D11C5F1093770069
:100390001F9108951F93CF93DF936091880063505E
:1003A00067FDBDC080918500CCE0D0E0C81BD109BD
:1003B000C457DF4F809184008D3209F09EC06830B1
:1003C00009F0ABC083EC80936C008AE580936000F9
:1003D000109269008881807639F0CE0109DF282FDC
:1003E0008F3F09F479C07FC09A811092750089818E
:1003F000882321F41092760022E067C0853019F43A
:100400009093890061C0863009F04AC08B818130A9
:1004100019F48EE590E01BC0823041F480E790E053
:10042000909387008093860022E236C08330F9F4EF
:100430008A81882341F484E390E09093870080933D
:10044000860024E029C0813041F488E390E0909355
:1004500087008093860022E11FC08230E1F48AE4A5
:1004600090E0909387008093860024E115C081324C
:1004700041F482E890E0909387008093860029E021
:100480000BC0823241F48EE190E09093870080931C
:10049000860026E101C020E080E48093690023C04B
:1004A000883021F421E08BE890E011C0893019F404
:1004B00090938B0009C08A3011F421E006C08B3084
:1004C00019F48BE48093780020E085E790E0909326
:1004D00087008093860007C0888187FD2E8180E891
:1004E0008093690006C08F81882319F48E8182175A
:1004F00008F0822F8093610010C08091690087FF0F
:100500000CC0CE0128DE8F3F21F48EE18093600085
:1005100004C0882311F0109261001092880080912D
:10052000600084FF58C0809161008F3F09F453C080
:10053000182F893008F018E0811B809361008091AA
:100540006C0098E8892780936C00112391F18091C9
:10055000690087FF08C08DE690E0612FB6DD182F97
:10056000893098F526C0209186003091870086FF5B
:100570000DC0ADE6B0E080E090E0F901E80FF91FB2
:10058000E491ED9301961817C1F708C0912FD90196
:10059000EDE6F0E08D9181939150E1F71150812FBC
:1005A00090E01F5F0196820F931F909387008093C6
:1005B00086008DE690E0612F3ED0612F6C5F6C303D
:1005C00041F08FEF8093610004C08FEF8093610052
:1005D0006EE1609360009AE086B3857031F49150CB
:1005E000D9F7109289001092830010E0992309F442
:1005F00011E080916800811729F0112309F44EDE83
:1006000010936800DF91CF911F910895A82FB92F03
:1006100080E090E041E050EA60956F5F58F42D91E2
:1006200038EF82279795879510F0842795273F5FAD
:10063000C8F3F3CF0895EADF8D939D930895A6E064
:1006400088279927AA9569F00197E1F3B099FCCF23
:10065000B09BFECF81E09927A6B3019611F0A5705B
:10066000D9F70895CF93CFB7CF93B09BFECFB09B70
:100670000BC0B09B09C0B09B07C0B09B05C0B09B2E
:1006800003C0B09B01C0D5C00F92DF93C09185001D
:10069000DD27C457DF4F012EB09B03C0DF910F90C1
:1006A000E6CF2F930F931F934F932FEF4F6F06B308
:1006B00000FB20F95F933F9350E03BE065C016B329
:1006C0000126502950FDC89556B3012700FB25F996
:1006D0002F7306B3B1F05027102710FB26F906B28E
:1006E0002230F0F000C016B3012700FB27F90126E5
:1006F000502906B22430E8F54F77206816B3000081
:10070000F6CF50274F7D206206B2102F000000C0A8
:1007100006B300265029102710FB26F906B2E2CFB7
:100720004F7B06B3206400C0DACF01265029157034
:1007300006B269F14E7F2160012F16B328C0002652
:1007400050294D7F06B22260102F29C00126502962
:100750004B7F06B22460012F2DC016B3012650290D
:10076000477F2860000006B22EC04F7E06B320618E
:1007700030C0422706B3499300265029102706B2FD
:100780004FEF10FB20F9297F16B379F2157059F15C
:100790000126502906B2012700FB21F9237F06B369
:1007A00071F2002650293150D0F006B2102710FB0C
:1007B00022F9277E16B351F201265029012700FBAA
:1007C00006B223F92F7C49F2000006B3102710FB74
:1007D00024F90026502906B22F7939F270CF10E49F
:1007E0001ABF002719C03B503195C31BD04010E4FD
:1007F0001ABF0881033C09F10B34F9F02091830002
:100800001981110F1213EDCF4A81441F093651F19E
:100810000D3211F0013E29F700938A003F915F915C
:100820004F911F910F912F91DF910F90CAB7C6FD85
:100830001CCFCF91CFBFCF91189500918A00002394
:1008400069F310918800112379F534307AF13093EF
:10085000880000938400109185003BE0311B3093A9
:10086000850024C0009188000130F4F40AE54F703F
:1008700049F43091600034FD1AC000936000CCE66A
:10088000D0E019C03091770034FD11C0009377009B
:10089000C8E7D0E010C0052710E000C021C0052740
:1008A00010E0C89508BB14C03AE501C032ED032E34
:1008B000C0E0D0E032E017B31560C09A08B317BBB0
:1008C00055E020E84FEF20FF052708BB2795179537
:1008D0001C3F28F700004552B0F720FF0527279559
:1008E00008BB17951C3FB8F629913A9561F70A7F26
:1008F00010918900110F08BBC250D04011F0109325
:10090000830010E41ABF016017B31A7F402F4A7F9B
:1009100054E05A95F1F708BB17BB48BB7FCFE1996C
:10092000FECF9FBB8EBBE09A99278DB30895262FEB
:10093000E199FECF1CBA9FBB8EBB2DBB0FB6F894BE
:0E094000E29AE19A0FBE01960895F894FFCF57
:02094E005AFF4E
:00000001FF
