:1000000048C0CFC161C060C05FC05EC05DC05CC0A1
:100010005BC05AC059C058C057C056C055C0040331
:10002000090412036F0062006400650076002E0070
:100030006100740014034C00450044004300740048
:100040006C00480049004400120110010000000843
:10005000C016DF05000101020001090222000101B2
:1000600000801909040000010300000009210101BA
:100070000001221600070581030800640600FF093D
:1000800001A101150026FF00750895030900B202C1
:1000900001C011241FBECFE5D1E0DEBFCDBF10E00F
:1000A000A0E6B0E0E0E9F8E002C005900D92A236CB
:1000B000B107D9F710E0A2E6B0E001C01D92AF3958
:1000C000B107E1F75DD3E2C39BCF85B7836085BFFE
:1000D0008BB780648BBF8BE4809375008AE5809337
:1000E000740008951F93DC01162F8091740084FF23
:1000F00007C08091750098E889278093750003C038
:100100008AE580937400912FE6E7F0E08D9181936A
:1001100091501916DCF386E790E0612F2BD11C5F1C
:10012000109374001F9108951F93CF93DF939091C4
:100130008500935097FDA1C020918200809181009D
:100140008D3209F098C0983009F095C0CCE0D0E02D
:10015000C21BD109C757DF4F83EC809369008AE542
:1001600080936000109263008881807621F0CE0138
:10017000F4D2282F77C09A81109272008981882347
:1001800021F41092730022E067C0853019F4909337
:10019000860061C0863009F04AC08B81813019F435
:1001A00088E490E01BC0823041F48AE590E09093AF
:1001B00084008093830022E236C08330F9F48A8180
:1001C000882341F48EE190E0909384008093830033
:1001D00024E029C0813041F482E290E090938400D1
:1001E0008093830022E11FC08230E1F484E390E039
:1001F000909384008093830024E115C0813241F400
:100200008CE690E0909384008093830029E00BC0FB
:10021000823241F48CE790E09093840080938300D5
:1002200026E101C020E080E4809363001BC0883099
:1002300021F421E088E890E011C0893019F490930E
:10024000880009C08A3011F421E006C08B3019F40F
:100250008BE48093750020E082E790E09093840027
:10026000809383008F81882321F48E81821708F484
:10027000282F20936100109285008091600084FFF8
:1002800049C0809161008F3F09F444C0182F893024
:1002900008F018E0811B809361008091690098E864
:1002A000892780936900112341F1209183003091C7
:1002B00084008091630086FF0DC0AAE6B0E080E074
:1002C00090E0F901E80FF91FE491ED9301961817FA
:1002D000C1F708C0912FD901EAE6F0E08D91819332
:1002E0009150E1F71150812F90E01F5F0196820F2E
:1002F000931F90938400809383008AE690E0612F9F
:1003000039D0612F6C5F6C3019F08FEF80936100F2
:10031000609360009AE086B3857031F49150D9F70C
:10032000109286001092800010E0992309F411E0E9
:1003300080916200811729F0112309F443D21093B0
:100340006200DF91CF911F910895A82FB92F80E00F
:1003500090E041E050EA60956F5F58F42D9138EFDE
:1003600082279795879510F0842795273F5FC8F3DC
:10037000F3CF0895EADF8D939D930895A6E0882733
:100380009927AA9569F00197E1F3B099FCCFB09B4A
:10039000FECF81E09927A6B3019611F0A570D9F799
:1003A0000895CF93CFB7CF93B09BFECFB09B0BC038
:1003B000B09B09C0B09B07C0B09B05C0B09B03C0F9
:1003C000B09B01C0D5C00F92DF93C0918200DD27A2
:1003D000C757DF4F012EB09B03C0DF910F90E6CFD0
:1003E0002F930F931F934F932FEF4F6F06B300FB85
:1003F00020F95F933F9350E03BE065C016B30126C0
:10040000502950FDC89556B3012700FB25F92F73DD
:1004100006B3B1F05027102710FB26F906B22230A0
:10042000F0F000C016B3012700FB27F90126502980
:1004300006B22430E8F54F77206816B30000F6CFF7
:1004400050274F7D206206B2102F000000C006B377
:1004500000265029102710FB26F906B2E2CF4F7B69
:1004600006B3206400C0DACF01265029157006B209
:1004700069F14E7F2160012F16B328C00026502954
:100480004D7F06B22260102F29C0012650294B7FD4
:1004900006B22460012F2DC016B301265029477FD4
:1004A0002860000006B22EC04F7E06B3206130C027
:1004B000422706B3499300265029102706B24FEF72
:1004C00010FB20F9297F16B379F2157059F1012636
:1004D000502906B2012700FB21F9237F06B371F2F0
:1004E000002650293150D0F006B2102710FB22F917
:1004F000277E16B351F201265029012700FB06B2D0
:1005000023F92F7C49F2000006B3102710FB24F9D1
:100510000026502906B22F7939F270CF10E41ABFA5
:10052000002719C03B503195C31BD04010E41ABFBF
:100530000881033C09F10B34F9F020918000198106
:10054000110F1213EDCF4A81441F093651F10D32BC
:1005500011F0013E29F7009387003F915F914F9181
:100560001F910F912F91DF910F90CAB7C6FD1CCF3D
:10057000CF91CFBFCF91189500918700002369F3E9
:1005800010918500112379F534307AF1309385008C
:1005900000938100109182003BE0311B3093820078
:1005A00024C0009185000130F4F40AE54F7049F44D
:1005B0003091600034FD1AC000936000C9E6D0E0BD
:1005C00019C03091740034FD11C000937400C5E768
:1005D000D0E010C0052710E000C021C0052710E0C2
:1005E000C89508BB14C03AE501C032ED032EC0E047
:1005F000D0E032E017B31560C09A08B317BB55E0DE
:1006000020E84FEF20FF052708BB279517951C3FD3
:1006100028F700004552B0F720FF0527279508BBB3
:1006200017951C3FB8F629913A9561F70A7F10910A
:100630008600110F08BBC250D04011F0109380000B
:1006400010E41ABF016017B31A7F402F4A7F54E0AD
:100650005A95F1F708BB17BB48BB7FCFCF93DF9309
:10066000EC0150916800561708F4652F409167001F
:100670004423A9F4B19B04C081E08093640002C0CC
:1006800010926400B39B04C081E08093650002C0B7
:1006900010926500B49B0AC081E080936600A42F8D
:1006A000B0E0AC59BF4F20E030E00AC010926600C5
:1006B000F6CFFE01E20FF31F8D9180832F5F3F4F36
:1006C0002617B8F3460F40936700561B50936800F7
:1006D000862FDF91CF910895CF93DF93EC01509156
:1006E00068005523B1F1561708F4652F4091670053
:1006F000A42FB0E0AC59BF4F20E030E007C0FE01AE
:10070000E20FF31F80818D932F5F3F4F2617B8F3C1
:10071000460F40936700561B652F50936800552382
:10072000A9F480916400882311F0C19A01C0C19896
:1007300080916500882311F0C39A01C0C39880910D
:100740006600882311F0C49A01C0C49880E0662333
:1007500009F481E0DF91CF910895FC0180818076DA
:10076000803261F48181813011F0893039F483E085
:1007700080936800109267008FEF089580E00895DD
:100780008AE187BB80E090E06BD08F3F09F081BFAA
:100790002EE088E190E00FB6F894A89581BD0FBED9
:1007A00021BD93DCB89A20E04DE150E104C0A8954A
:1007B000CA010197F1F72150D1F7B8987894A8951C
:1007C000B3DCFDCFDF92EF92FF920F931F93CF9395
:1007D000DF9300E080E8D82EEE24FF241D2D100FBB
:1007E00011BFCCDDEC0189E0C433D8070CF0102F29
:1007F000D6940894E11CF11C88E0E816F10411F08D
:10080000012FECCF115011BF1F5FE12EFF24089480
:10081000E11CF11C13C0B2DD9C012453394037FFA9
:1008200003C0309521953F4F2C173D0714F09E01D2
:1008300001C011B781B78F5F81BFE90181B790E037
:10084000E816F90644F711BF61B780E090E010D0D8
:10085000DF91CF911F910F91FF90EF90DF9008955E
:10086000E199FECF1FBA8EBBE09A99278DB3089508
:10087000262FE199FECF1CBA1FBA8EBB2DBB0FB637
:10088000F894E29AE19A0FBE01960895F894FFCF8A
:020890005AFF0D
:00000001FF
