:0C0000000EC0FECFFDCFFCCFFBCFFACF2F
:10000C00F9CFF8CFF7CFF6CFF5CFF4CFF3CFF2CFC0
:10001C00F1CFF894EE27ECBBE5BFF8E1A895A4B7B7
:10002C00A77FA4BFF1BDE1BD8DE0A2E0BB27ED939E
:10003C008A95E9F780E091E0A0E6ED930197E9F766
:10004C00E0E0E1BBE2BBE3BBEFE5EDBFE1E0EEBF1F
:10005C00C0EAD0E000C0EAE3E7BBC59AC498C39AF3
:10006C00C198E4EFF1E0FA93EA9316D0C19B02C079
:10007C00C19801C0C19AC39B02C0C39801C0C39A66
:10008C00C49B02C0C49801C0C49AC59B02C0C59849
:10009C0001C0C59AE6CFFFCFE991F991309639F0BE
:1000AC0080ED97E00197F1F7A8953197C9F708957E
:00000001FF
